{
	"data": {
		"bytecode": {
			"linkReferences": {},
			"object": "608060405234801561000f575f5ffd5b50604051610ef2380380610ef283398181016040528101906100319190610217565b335f73ffffffffffffffffffffffffffffffffffffffff168173ffffffffffffffffffffffffffffffffffffffff16036100a2575f6040517f1e4fbdf70000000000000000000000000000000000000000000000000000000081526004016100999190610251565b60405180910390fd5b6100b1816100f860201b60201c565b508060025f6101000a81548173ffffffffffffffffffffffffffffffffffffffff021916908373ffffffffffffffffffffffffffffffffffffffff1602179055505061026a565b5f5f5f9054906101000a900473ffffffffffffffffffffffffffffffffffffffff169050815f5f6101000a81548173ffffffffffffffffffffffffffffffffffffffff021916908373ffffffffffffffffffffffffffffffffffffffff1602179055508173ffffffffffffffffffffffffffffffffffffffff168173ffffffffffffffffffffffffffffffffffffffff167f8be0079c531659141344cd1fd0a4f28419497f9722a3daafe3b4186f6b6457e060405160405180910390a35050565b5f5ffd5b5f73ffffffffffffffffffffffffffffffffffffffff82169050919050565b5f6101e6826101bd565b9050919050565b6101f6816101dc565b8114610200575f5ffd5b50565b5f81519050610211816101ed565b92915050565b5f6020828403121561022c5761022b6101b9565b5b5f61023984828501610203565b91505092915050565b61024b816101dc565b82525050565b5f6020820190506102645f830184610242565b92915050565b610c7b806102775f395ff3fe608060405234801561000f575f5ffd5b5060043610610055575f3560e01c8063715018a6146100595780638da5cb5b14610063578063a16747a414610081578063f2fde38b1461009d578063f804e080146100b9575b5f5ffd5b6100616100d5565b005b61006b6100e8565b604051610078919061079b565b60405180910390f35b61009b6004803603810190610096919061091b565b61010f565b005b6100b760048036038101906100b29190610970565b6101a6565b005b6100d360048036038101906100ce9190610a4f565b61022a565b005b6100dd610275565b6100e65f6102fc565b565b5f5f5f9054906101000a900473ffffffffffffffffffffffffffffffffffffffff16905090565b8060015f60025f9054906101000a900473ffffffffffffffffffffffffffffffffffffffff1673ffffffffffffffffffffffffffffffffffffffff1673ffffffffffffffffffffffffffffffffffffffff1681526020019081526020015f205f820151815f0155602082015181600101556040820151816002015f6101000a81548160ff021916908360ff16021790555090505050565b6101ae610275565b5f73ffffffffffffffffffffffffffffffffffffffff168173ffffffffffffffffffffffffffffffffffffffff160361021e575f6040517f1e4fbdf7000000000000000000000000000000000000000000000000000000008152600401610215919061079b565b60405180910390fd5b610227816102fc565b50565b610233816103bd565b610272576040517f08c379a000000000000000000000000000000000000000000000000000000000815260040161026990610af0565b60405180910390fd5b50565b61027d61045a565b73ffffffffffffffffffffffffffffffffffffffff1661029b6100e8565b73ffffffffffffffffffffffffffffffffffffffff16146102fa576102be61045a565b6040517f118cdaa70000000000000000000000000000000000000000000000000000000081526004016102f1919061079b565b60405180910390fd5b565b5f5f5f9054906101000a900473ffffffffffffffffffffffffffffffffffffffff169050815f5f6101000a81548173ffffffffffffffffffffffffffffffffffffffff021916908373ffffffffffffffffffffffffffffffffffffffff1602179055508173ffffffffffffffffffffffffffffffffffffffff168173ffffffffffffffffffffffffffffffffffffffff167f8be0079c531659141344cd1fd0a4f28419497f9722a3daafe3b4186f6b6457e060405160405180910390a35050565b5f5f336040516020016103d09190610b53565b604051602081830303815290604052805190602001209050610403836103f583610461565b61049490919063ffffffff16565b73ffffffffffffffffffffffffffffffffffffffff1660025f9054906101000a900473ffffffffffffffffffffffffffffffffffffffff1673ffffffffffffffffffffffffffffffffffffffff1614915050919050565b5f33905090565b5f7f19457468657265756d205369676e6564204d6573736167653a0a3332000000005f5281601c52603c5f209050919050565b5f5f5f5f6104a286866104be565b9250925092506104b28282610513565b82935050505092915050565b5f5f5f60418451036104fe575f5f5f602087015192506040870151915060608701515f1a90506104f088828585610675565b95509550955050505061050c565b5f600285515f1b9250925092505b9250925092565b5f600381111561052657610525610b6d565b5b82600381111561053957610538610b6d565b5b0315610671576001600381111561055357610552610b6d565b5b82600381111561056657610565610b6d565b5b0361059d576040517ff645eedf00000000000000000000000000000000000000000000000000000000815260040160405180910390fd5b600260038111156105b1576105b0610b6d565b5b8260038111156105c4576105c3610b6d565b5b0361060857805f1c6040517ffce698f70000000000000000000000000000000000000000000000000000000081526004016105ff9190610bb2565b60405180910390fd5b60038081111561061b5761061a610b6d565b5b82600381111561062e5761062d610b6d565b5b0361067057806040517fd78bce0c0000000000000000000000000000000000000000000000000000000081526004016106679190610bda565b60405180910390fd5b5b5050565b5f5f5f7f7fffffffffffffffffffffffffffffff5d576e7357a4501ddfe92f46681b20a0845f1c11156106b1575f600385925092509250610752565b5f6001888888886040515f81526020016040526040516106d49493929190610c02565b6020604051602081039080840390855afa1580156106f4573d5f5f3e3d5ffd5b5050506020604051035190505f73ffffffffffffffffffffffffffffffffffffffff168173ffffffffffffffffffffffffffffffffffffffff1603610745575f60015f5f1b93509350935050610752565b805f5f5f1b935093509350505b9450945094915050565b5f73ffffffffffffffffffffffffffffffffffffffff82169050919050565b5f6107858261075c565b9050919050565b6107958161077b565b82525050565b5f6020820190506107ae5f83018461078c565b92915050565b5f604051905090565b5f5ffd5b5f5ffd5b5f5ffd5b5f601f19601f8301169050919050565b7f4e487b71000000000000000000000000000000000000000000000000000000005f52604160045260245ffd5b61080f826107c9565b810181811067ffffffffffffffff8211171561082e5761082d6107d9565b5b80604052505050565b5f6108406107b4565b905061084c8282610806565b919050565b5f819050919050565b61086381610851565b811461086d575f5ffd5b50565b5f8135905061087e8161085a565b92915050565b5f60ff82169050919050565b61089981610884565b81146108a3575f5ffd5b50565b5f813590506108b481610890565b92915050565b5f606082840312156108cf576108ce6107c5565b5b6108d96060610837565b90505f6108e884828501610870565b5f8301525060206108fb84828501610870565b602083015250604061090f848285016108a6565b60408301525092915050565b5f606082840312156109305761092f6107bd565b5b5f61093d848285016108ba565b91505092915050565b61094f8161077b565b8114610959575f5ffd5b50565b5f8135905061096a81610946565b92915050565b5f60208284031215610985576109846107bd565b5b5f6109928482850161095c565b91505092915050565b5f5ffd5b5f5ffd5b5f67ffffffffffffffff8211156109bd576109bc6107d9565b5b6109c6826107c9565b9050602081019050919050565b828183375f83830152505050565b5f6109f36109ee846109a3565b610837565b905082815260208101848484011115610a0f57610a0e61099f565b5b610a1a8482856109d3565b509392505050565b5f82601f830112610a3657610a3561099b565b5b8135610a468482602086016109e1565b91505092915050565b5f60208284031215610a6457610a636107bd565b5b5f82013567ffffffffffffffff811115610a8157610a806107c1565b5b610a8d84828501610a22565b91505092915050565b5f82825260208201905092915050565b7f436f6d70757465722073617973206e6f2e0000000000000000000000000000005f82015250565b5f610ada601183610a96565b9150610ae582610aa6565b602082019050919050565b5f6020820190508181035f830152610b0781610ace565b9050919050565b5f8160601b9050919050565b5f610b2482610b0e565b9050919050565b5f610b3582610b1a565b9050919050565b610b4d610b488261077b565b610b2b565b82525050565b5f610b5e8284610b3c565b60148201915081905092915050565b7f4e487b71000000000000000000000000000000000000000000000000000000005f52602160045260245ffd5b5f819050919050565b610bac81610b9a565b82525050565b5f602082019050610bc55f830184610ba3565b92915050565b610bd481610851565b82525050565b5f602082019050610bed5f830184610bcb565b92915050565b610bfc81610884565b82525050565b5f608082019050610c155f830187610bcb565b610c226020830186610bf3565b610c2f6040830185610bcb565b610c3c6060830184610bcb565b9594505050505056fea26469706673582212206ed0ceb1b26c2f04f8334e5954f912da46f637b14a08db8c16edb1810f2065ce64736f6c634300081c0033",
			"opcodes": "PUSH1 0x80 PUSH1 0x40 MSTORE CALLVALUE DUP1 ISZERO PUSH2 0xF JUMPI PUSH0 PUSH0 REVERT JUMPDEST POP PUSH1 0x40 MLOAD PUSH2 0xEF2 CODESIZE SUB DUP1 PUSH2 0xEF2 DUP4 CODECOPY DUP2 DUP2 ADD PUSH1 0x40 MSTORE DUP2 ADD SWAP1 PUSH2 0x31 SWAP2 SWAP1 PUSH2 0x217 JUMP JUMPDEST CALLER PUSH0 PUSH20 0xFFFFFFFFFFFFFFFFFFFFFFFFFFFFFFFFFFFFFFFF AND DUP2 PUSH20 0xFFFFFFFFFFFFFFFFFFFFFFFFFFFFFFFFFFFFFFFF AND SUB PUSH2 0xA2 JUMPI PUSH0 PUSH1 0x40 MLOAD PUSH32 0x1E4FBDF700000000000000000000000000000000000000000000000000000000 DUP2 MSTORE PUSH1 0x4 ADD PUSH2 0x99 SWAP2 SWAP1 PUSH2 0x251 JUMP JUMPDEST PUSH1 0x40 MLOAD DUP1 SWAP2 SUB SWAP1 REVERT JUMPDEST PUSH2 0xB1 DUP2 PUSH2 0xF8 PUSH1 0x20 SHL PUSH1 0x20 SHR JUMP JUMPDEST POP DUP1 PUSH1 0x2 PUSH0 PUSH2 0x100 EXP DUP2 SLOAD DUP2 PUSH20 0xFFFFFFFFFFFFFFFFFFFFFFFFFFFFFFFFFFFFFFFF MUL NOT AND SWAP1 DUP4 PUSH20 0xFFFFFFFFFFFFFFFFFFFFFFFFFFFFFFFFFFFFFFFF AND MUL OR SWAP1 SSTORE POP POP PUSH2 0x26A JUMP JUMPDEST PUSH0 PUSH0 PUSH0 SWAP1 SLOAD SWAP1 PUSH2 0x100 EXP SWAP1 DIV PUSH20 0xFFFFFFFFFFFFFFFFFFFFFFFFFFFFFFFFFFFFFFFF AND SWAP1 POP DUP2 PUSH0 PUSH0 PUSH2 0x100 EXP DUP2 SLOAD DUP2 PUSH20 0xFFFFFFFFFFFFFFFFFFFFFFFFFFFFFFFFFFFFFFFF MUL NOT AND SWAP1 DUP4 PUSH20 0xFFFFFFFFFFFFFFFFFFFFFFFFFFFFFFFFFFFFFFFF AND MUL OR SWAP1 SSTORE POP DUP2 PUSH20 0xFFFFFFFFFFFFFFFFFFFFFFFFFFFFFFFFFFFFFFFF AND DUP2 PUSH20 0xFFFFFFFFFFFFFFFFFFFFFFFFFFFFFFFFFFFFFFFF AND PUSH32 0x8BE0079C531659141344CD1FD0A4F28419497F9722A3DAAFE3B4186F6B6457E0 PUSH1 0x40 MLOAD PUSH1 0x40 MLOAD DUP1 SWAP2 SUB SWAP1 LOG3 POP POP JUMP JUMPDEST PUSH0 PUSH0 REVERT JUMPDEST PUSH0 PUSH20 0xFFFFFFFFFFFFFFFFFFFFFFFFFFFFFFFFFFFFFFFF DUP3 AND SWAP1 POP SWAP2 SWAP1 POP JUMP JUMPDEST PUSH0 PUSH2 0x1E6 DUP3 PUSH2 0x1BD JUMP JUMPDEST SWAP1 POP SWAP2 SWAP1 POP JUMP JUMPDEST PUSH2 0x1F6 DUP2 PUSH2 0x1DC JUMP JUMPDEST DUP2 EQ PUSH2 0x200 JUMPI PUSH0 PUSH0 REVERT JUMPDEST POP JUMP JUMPDEST PUSH0 DUP2 MLOAD SWAP1 POP PUSH2 0x211 DUP2 PUSH2 0x1ED JUMP JUMPDEST SWAP3 SWAP2 POP POP JUMP JUMPDEST PUSH0 PUSH1 0x20 DUP3 DUP5 SUB SLT ISZERO PUSH2 0x22C JUMPI PUSH2 0x22B PUSH2 0x1B9 JUMP JUMPDEST JUMPDEST PUSH0 PUSH2 0x239 DUP5 DUP3 DUP6 ADD PUSH2 0x203 JUMP JUMPDEST SWAP2 POP POP SWAP3 SWAP2 POP POP JUMP JUMPDEST PUSH2 0x24B DUP2 PUSH2 0x1DC JUMP JUMPDEST DUP3 MSTORE POP POP JUMP JUMPDEST PUSH0 PUSH1 0x20 DUP3 ADD SWAP1 POP PUSH2 0x264 PUSH0 DUP4 ADD DUP5 PUSH2 0x242 JUMP JUMPDEST SWAP3 SWAP2 POP POP JUMP JUMPDEST PUSH2 0xC7B DUP1 PUSH2 0x277 PUSH0 CODECOPY PUSH0 RETURN INVALID PUSH1 0x80 PUSH1 0x40 MSTORE CALLVALUE DUP1 ISZERO PUSH2 0xF JUMPI PUSH0 PUSH0 REVERT JUMPDEST POP PUSH1 0x4 CALLDATASIZE LT PUSH2 0x55 JUMPI PUSH0 CALLDATALOAD PUSH1 0xE0 SHR DUP1 PUSH4 0x715018A6 EQ PUSH2 0x59 JUMPI DUP1 PUSH4 0x8DA5CB5B EQ PUSH2 0x63 JUMPI DUP1 PUSH4 0xA16747A4 EQ PUSH2 0x81 JUMPI DUP1 PUSH4 0xF2FDE38B EQ PUSH2 0x9D JUMPI DUP1 PUSH4 0xF804E080 EQ PUSH2 0xB9 JUMPI JUMPDEST PUSH0 PUSH0 REVERT JUMPDEST PUSH2 0x61 PUSH2 0xD5 JUMP JUMPDEST STOP JUMPDEST PUSH2 0x6B PUSH2 0xE8 JUMP JUMPDEST PUSH1 0x40 MLOAD PUSH2 0x78 SWAP2 SWAP1 PUSH2 0x79B JUMP JUMPDEST PUSH1 0x40 MLOAD DUP1 SWAP2 SUB SWAP1 RETURN JUMPDEST PUSH2 0x9B PUSH1 0x4 DUP1 CALLDATASIZE SUB DUP2 ADD SWAP1 PUSH2 0x96 SWAP2 SWAP1 PUSH2 0x91B JUMP JUMPDEST PUSH2 0x10F JUMP JUMPDEST STOP JUMPDEST PUSH2 0xB7 PUSH1 0x4 DUP1 CALLDATASIZE SUB DUP2 ADD SWAP1 PUSH2 0xB2 SWAP2 SWAP1 PUSH2 0x970 JUMP JUMPDEST PUSH2 0x1A6 JUMP JUMPDEST STOP JUMPDEST PUSH2 0xD3 PUSH1 0x4 DUP1 CALLDATASIZE SUB DUP2 ADD SWAP1 PUSH2 0xCE SWAP2 SWAP1 PUSH2 0xA4F JUMP JUMPDEST PUSH2 0x22A JUMP JUMPDEST STOP JUMPDEST PUSH2 0xDD PUSH2 0x275 JUMP JUMPDEST PUSH2 0xE6 PUSH0 PUSH2 0x2FC JUMP JUMPDEST JUMP JUMPDEST PUSH0 PUSH0 PUSH0 SWAP1 SLOAD SWAP1 PUSH2 0x100 EXP SWAP1 DIV PUSH20 0xFFFFFFFFFFFFFFFFFFFFFFFFFFFFFFFFFFFFFFFF AND SWAP1 POP SWAP1 JUMP JUMPDEST DUP1 PUSH1 0x1 PUSH0 PUSH1 0x2 PUSH0 SWAP1 SLOAD SWAP1 PUSH2 0x100 EXP SWAP1 DIV PUSH20 0xFFFFFFFFFFFFFFFFFFFFFFFFFFFFFFFFFFFFFFFF AND PUSH20 0xFFFFFFFFFFFFFFFFFFFFFFFFFFFFFFFFFFFFFFFF AND PUSH20 0xFFFFFFFFFFFFFFFFFFFFFFFFFFFFFFFFFFFFFFFF AND DUP2 MSTORE PUSH1 0x20 ADD SWAP1 DUP2 MSTORE PUSH1 0x20 ADD PUSH0 KECCAK256 PUSH0 DUP3 ADD MLOAD DUP2 PUSH0 ADD SSTORE PUSH1 0x20 DUP3 ADD MLOAD DUP2 PUSH1 0x1 ADD SSTORE PUSH1 0x40 DUP3 ADD MLOAD DUP2 PUSH1 0x2 ADD PUSH0 PUSH2 0x100 EXP DUP2 SLOAD DUP2 PUSH1 0xFF MUL NOT AND SWAP1 DUP4 PUSH1 0xFF AND MUL OR SWAP1 SSTORE POP SWAP1 POP POP POP JUMP JUMPDEST PUSH2 0x1AE PUSH2 0x275 JUMP JUMPDEST PUSH0 PUSH20 0xFFFFFFFFFFFFFFFFFFFFFFFFFFFFFFFFFFFFFFFF AND DUP2 PUSH20 0xFFFFFFFFFFFFFFFFFFFFFFFFFFFFFFFFFFFFFFFF AND SUB PUSH2 0x21E JUMPI PUSH0 PUSH1 0x40 MLOAD PUSH32 0x1E4FBDF700000000000000000000000000000000000000000000000000000000 DUP2 MSTORE PUSH1 0x4 ADD PUSH2 0x215 SWAP2 SWAP1 PUSH2 0x79B JUMP JUMPDEST PUSH1 0x40 MLOAD DUP1 SWAP2 SUB SWAP1 REVERT JUMPDEST PUSH2 0x227 DUP2 PUSH2 0x2FC JUMP JUMPDEST POP JUMP JUMPDEST PUSH2 0x233 DUP2 PUSH2 0x3BD JUMP JUMPDEST PUSH2 0x272 JUMPI PUSH1 0x40 MLOAD PUSH32 0x8C379A000000000000000000000000000000000000000000000000000000000 DUP2 MSTORE PUSH1 0x4 ADD PUSH2 0x269 SWAP1 PUSH2 0xAF0 JUMP JUMPDEST PUSH1 0x40 MLOAD DUP1 SWAP2 SUB SWAP1 REVERT JUMPDEST POP JUMP JUMPDEST PUSH2 0x27D PUSH2 0x45A JUMP JUMPDEST PUSH20 0xFFFFFFFFFFFFFFFFFFFFFFFFFFFFFFFFFFFFFFFF AND PUSH2 0x29B PUSH2 0xE8 JUMP JUMPDEST PUSH20 0xFFFFFFFFFFFFFFFFFFFFFFFFFFFFFFFFFFFFFFFF AND EQ PUSH2 0x2FA JUMPI PUSH2 0x2BE PUSH2 0x45A JUMP JUMPDEST PUSH1 0x40 MLOAD PUSH32 0x118CDAA700000000000000000000000000000000000000000000000000000000 DUP2 MSTORE PUSH1 0x4 ADD PUSH2 0x2F1 SWAP2 SWAP1 PUSH2 0x79B JUMP JUMPDEST PUSH1 0x40 MLOAD DUP1 SWAP2 SUB SWAP1 REVERT JUMPDEST JUMP JUMPDEST PUSH0 PUSH0 PUSH0 SWAP1 SLOAD SWAP1 PUSH2 0x100 EXP SWAP1 DIV PUSH20 0xFFFFFFFFFFFFFFFFFFFFFFFFFFFFFFFFFFFFFFFF AND SWAP1 POP DUP2 PUSH0 PUSH0 PUSH2 0x100 EXP DUP2 SLOAD DUP2 PUSH20 0xFFFFFFFFFFFFFFFFFFFFFFFFFFFFFFFFFFFFFFFF MUL NOT AND SWAP1 DUP4 PUSH20 0xFFFFFFFFFFFFFFFFFFFFFFFFFFFFFFFFFFFFFFFF AND MUL OR SWAP1 SSTORE POP DUP2 PUSH20 0xFFFFFFFFFFFFFFFFFFFFFFFFFFFFFFFFFFFFFFFF AND DUP2 PUSH20 0xFFFFFFFFFFFFFFFFFFFFFFFFFFFFFFFFFFFFFFFF AND PUSH32 0x8BE0079C531659141344CD1FD0A4F28419497F9722A3DAAFE3B4186F6B6457E0 PUSH1 0x40 MLOAD PUSH1 0x40 MLOAD DUP1 SWAP2 SUB SWAP1 LOG3 POP POP JUMP JUMPDEST PUSH0 PUSH0 CALLER PUSH1 0x40 MLOAD PUSH1 0x20 ADD PUSH2 0x3D0 SWAP2 SWAP1 PUSH2 0xB53 JUMP JUMPDEST PUSH1 0x40 MLOAD PUSH1 0x20 DUP2 DUP4 SUB SUB DUP2 MSTORE SWAP1 PUSH1 0x40 MSTORE DUP1 MLOAD SWAP1 PUSH1 0x20 ADD KECCAK256 SWAP1 POP PUSH2 0x403 DUP4 PUSH2 0x3F5 DUP4 PUSH2 0x461 JUMP JUMPDEST PUSH2 0x494 SWAP1 SWAP2 SWAP1 PUSH4 0xFFFFFFFF AND JUMP JUMPDEST PUSH20 0xFFFFFFFFFFFFFFFFFFFFFFFFFFFFFFFFFFFFFFFF AND PUSH1 0x2 PUSH0 SWAP1 SLOAD SWAP1 PUSH2 0x100 EXP SWAP1 DIV PUSH20 0xFFFFFFFFFFFFFFFFFFFFFFFFFFFFFFFFFFFFFFFF AND PUSH20 0xFFFFFFFFFFFFFFFFFFFFFFFFFFFFFFFFFFFFFFFF AND EQ SWAP2 POP POP SWAP2 SWAP1 POP JUMP JUMPDEST PUSH0 CALLER SWAP1 POP SWAP1 JUMP JUMPDEST PUSH0 PUSH32 0x19457468657265756D205369676E6564204D6573736167653A0A333200000000 PUSH0 MSTORE DUP2 PUSH1 0x1C MSTORE PUSH1 0x3C PUSH0 KECCAK256 SWAP1 POP SWAP2 SWAP1 POP JUMP JUMPDEST PUSH0 PUSH0 PUSH0 PUSH0 PUSH2 0x4A2 DUP7 DUP7 PUSH2 0x4BE JUMP JUMPDEST SWAP3 POP SWAP3 POP SWAP3 POP PUSH2 0x4B2 DUP3 DUP3 PUSH2 0x513 JUMP JUMPDEST DUP3 SWAP4 POP POP POP POP SWAP3 SWAP2 POP POP JUMP JUMPDEST PUSH0 PUSH0 PUSH0 PUSH1 0x41 DUP5 MLOAD SUB PUSH2 0x4FE JUMPI PUSH0 PUSH0 PUSH0 PUSH1 0x20 DUP8 ADD MLOAD SWAP3 POP PUSH1 0x40 DUP8 ADD MLOAD SWAP2 POP PUSH1 0x60 DUP8 ADD MLOAD PUSH0 BYTE SWAP1 POP PUSH2 0x4F0 DUP9 DUP3 DUP6 DUP6 PUSH2 0x675 JUMP JUMPDEST SWAP6 POP SWAP6 POP SWAP6 POP POP POP POP PUSH2 0x50C JUMP JUMPDEST PUSH0 PUSH1 0x2 DUP6 MLOAD PUSH0 SHL SWAP3 POP SWAP3 POP SWAP3 POP JUMPDEST SWAP3 POP SWAP3 POP SWAP3 JUMP JUMPDEST PUSH0 PUSH1 0x3 DUP2 GT ISZERO PUSH2 0x526 JUMPI PUSH2 0x525 PUSH2 0xB6D JUMP JUMPDEST JUMPDEST DUP3 PUSH1 0x3 DUP2 GT ISZERO PUSH2 0x539 JUMPI PUSH2 0x538 PUSH2 0xB6D JUMP JUMPDEST JUMPDEST SUB ISZERO PUSH2 0x671 JUMPI PUSH1 0x1 PUSH1 0x3 DUP2 GT ISZERO PUSH2 0x553 JUMPI PUSH2 0x552 PUSH2 0xB6D JUMP JUMPDEST JUMPDEST DUP3 PUSH1 0x3 DUP2 GT ISZERO PUSH2 0x566 JUMPI PUSH2 0x565 PUSH2 0xB6D JUMP JUMPDEST JUMPDEST SUB PUSH2 0x59D JUMPI PUSH1 0x40 MLOAD PUSH32 0xF645EEDF00000000000000000000000000000000000000000000000000000000 DUP2 MSTORE PUSH1 0x4 ADD PUSH1 0x40 MLOAD DUP1 SWAP2 SUB SWAP1 REVERT JUMPDEST PUSH1 0x2 PUSH1 0x3 DUP2 GT ISZERO PUSH2 0x5B1 JUMPI PUSH2 0x5B0 PUSH2 0xB6D JUMP JUMPDEST JUMPDEST DUP3 PUSH1 0x3 DUP2 GT ISZERO PUSH2 0x5C4 JUMPI PUSH2 0x5C3 PUSH2 0xB6D JUMP JUMPDEST JUMPDEST SUB PUSH2 0x608 JUMPI DUP1 PUSH0 SHR PUSH1 0x40 MLOAD PUSH32 0xFCE698F700000000000000000000000000000000000000000000000000000000 DUP2 MSTORE PUSH1 0x4 ADD PUSH2 0x5FF SWAP2 SWAP1 PUSH2 0xBB2 JUMP JUMPDEST PUSH1 0x40 MLOAD DUP1 SWAP2 SUB SWAP1 REVERT JUMPDEST PUSH1 0x3 DUP1 DUP2 GT ISZERO PUSH2 0x61B JUMPI PUSH2 0x61A PUSH2 0xB6D JUMP JUMPDEST JUMPDEST DUP3 PUSH1 0x3 DUP2 GT ISZERO PUSH2 0x62E JUMPI PUSH2 0x62D PUSH2 0xB6D JUMP JUMPDEST JUMPDEST SUB PUSH2 0x670 JUMPI DUP1 PUSH1 0x40 MLOAD PUSH32 0xD78BCE0C00000000000000000000000000000000000000000000000000000000 DUP2 MSTORE PUSH1 0x4 ADD PUSH2 0x667 SWAP2 SWAP1 PUSH2 0xBDA JUMP JUMPDEST PUSH1 0x40 MLOAD DUP1 SWAP2 SUB SWAP1 REVERT JUMPDEST JUMPDEST POP POP JUMP JUMPDEST PUSH0 PUSH0 PUSH0 PUSH32 0x7FFFFFFFFFFFFFFFFFFFFFFFFFFFFFFF5D576E7357A4501DDFE92F46681B20A0 DUP5 PUSH0 SHR GT ISZERO PUSH2 0x6B1 JUMPI PUSH0 PUSH1 0x3 DUP6 SWAP3 POP SWAP3 POP SWAP3 POP PUSH2 0x752 JUMP JUMPDEST PUSH0 PUSH1 0x1 DUP9 DUP9 DUP9 DUP9 PUSH1 0x40 MLOAD PUSH0 DUP2 MSTORE PUSH1 0x20 ADD PUSH1 0x40 MSTORE PUSH1 0x40 MLOAD PUSH2 0x6D4 SWAP5 SWAP4 SWAP3 SWAP2 SWAP1 PUSH2 0xC02 JUMP JUMPDEST PUSH1 0x20 PUSH1 0x40 MLOAD PUSH1 0x20 DUP2 SUB SWAP1 DUP1 DUP5 SUB SWAP1 DUP6 GAS STATICCALL ISZERO DUP1 ISZERO PUSH2 0x6F4 JUMPI RETURNDATASIZE PUSH0 PUSH0 RETURNDATACOPY RETURNDATASIZE PUSH0 REVERT JUMPDEST POP POP POP PUSH1 0x20 PUSH1 0x40 MLOAD SUB MLOAD SWAP1 POP PUSH0 PUSH20 0xFFFFFFFFFFFFFFFFFFFFFFFFFFFFFFFFFFFFFFFF AND DUP2 PUSH20 0xFFFFFFFFFFFFFFFFFFFFFFFFFFFFFFFFFFFFFFFF AND SUB PUSH2 0x745 JUMPI PUSH0 PUSH1 0x1 PUSH0 PUSH0 SHL SWAP4 POP SWAP4 POP SWAP4 POP POP PUSH2 0x752 JUMP JUMPDEST DUP1 PUSH0 PUSH0 PUSH0 SHL SWAP4 POP SWAP4 POP SWAP4 POP POP JUMPDEST SWAP5 POP SWAP5 POP SWAP5 SWAP2 POP POP JUMP JUMPDEST PUSH0 PUSH20 0xFFFFFFFFFFFFFFFFFFFFFFFFFFFFFFFFFFFFFFFF DUP3 AND SWAP1 POP SWAP2 SWAP1 POP JUMP JUMPDEST PUSH0 PUSH2 0x785 DUP3 PUSH2 0x75C JUMP JUMPDEST SWAP1 POP SWAP2 SWAP1 POP JUMP JUMPDEST PUSH2 0x795 DUP2 PUSH2 0x77B JUMP JUMPDEST DUP3 MSTORE POP POP JUMP JUMPDEST PUSH0 PUSH1 0x20 DUP3 ADD SWAP1 POP PUSH2 0x7AE PUSH0 DUP4 ADD DUP5 PUSH2 0x78C JUMP JUMPDEST SWAP3 SWAP2 POP POP JUMP JUMPDEST PUSH0 PUSH1 0x40 MLOAD SWAP1 POP SWAP1 JUMP JUMPDEST PUSH0 PUSH0 REVERT JUMPDEST PUSH0 PUSH0 REVERT JUMPDEST PUSH0 PUSH0 REVERT JUMPDEST PUSH0 PUSH1 0x1F NOT PUSH1 0x1F DUP4 ADD AND SWAP1 POP SWAP2 SWAP1 POP JUMP JUMPDEST PUSH32 0x4E487B7100000000000000000000000000000000000000000000000000000000 PUSH0 MSTORE PUSH1 0x41 PUSH1 0x4 MSTORE PUSH1 0x24 PUSH0 REVERT JUMPDEST PUSH2 0x80F DUP3 PUSH2 0x7C9 JUMP JUMPDEST DUP2 ADD DUP2 DUP2 LT PUSH8 0xFFFFFFFFFFFFFFFF DUP3 GT OR ISZERO PUSH2 0x82E JUMPI PUSH2 0x82D PUSH2 0x7D9 JUMP JUMPDEST JUMPDEST DUP1 PUSH1 0x40 MSTORE POP POP POP JUMP JUMPDEST PUSH0 PUSH2 0x840 PUSH2 0x7B4 JUMP JUMPDEST SWAP1 POP PUSH2 0x84C DUP3 DUP3 PUSH2 0x806 JUMP JUMPDEST SWAP2 SWAP1 POP JUMP JUMPDEST PUSH0 DUP2 SWAP1 POP SWAP2 SWAP1 POP JUMP JUMPDEST PUSH2 0x863 DUP2 PUSH2 0x851 JUMP JUMPDEST DUP2 EQ PUSH2 0x86D JUMPI PUSH0 PUSH0 REVERT JUMPDEST POP JUMP JUMPDEST PUSH0 DUP2 CALLDATALOAD SWAP1 POP PUSH2 0x87E DUP2 PUSH2 0x85A JUMP JUMPDEST SWAP3 SWAP2 POP POP JUMP JUMPDEST PUSH0 PUSH1 0xFF DUP3 AND SWAP1 POP SWAP2 SWAP1 POP JUMP JUMPDEST PUSH2 0x899 DUP2 PUSH2 0x884 JUMP JUMPDEST DUP2 EQ PUSH2 0x8A3 JUMPI PUSH0 PUSH0 REVERT JUMPDEST POP JUMP JUMPDEST PUSH0 DUP2 CALLDATALOAD SWAP1 POP PUSH2 0x8B4 DUP2 PUSH2 0x890 JUMP JUMPDEST SWAP3 SWAP2 POP POP JUMP JUMPDEST PUSH0 PUSH1 0x60 DUP3 DUP5 SUB SLT ISZERO PUSH2 0x8CF JUMPI PUSH2 0x8CE PUSH2 0x7C5 JUMP JUMPDEST JUMPDEST PUSH2 0x8D9 PUSH1 0x60 PUSH2 0x837 JUMP JUMPDEST SWAP1 POP PUSH0 PUSH2 0x8E8 DUP5 DUP3 DUP6 ADD PUSH2 0x870 JUMP JUMPDEST PUSH0 DUP4 ADD MSTORE POP PUSH1 0x20 PUSH2 0x8FB DUP5 DUP3 DUP6 ADD PUSH2 0x870 JUMP JUMPDEST PUSH1 0x20 DUP4 ADD MSTORE POP PUSH1 0x40 PUSH2 0x90F DUP5 DUP3 DUP6 ADD PUSH2 0x8A6 JUMP JUMPDEST PUSH1 0x40 DUP4 ADD MSTORE POP SWAP3 SWAP2 POP POP JUMP JUMPDEST PUSH0 PUSH1 0x60 DUP3 DUP5 SUB SLT ISZERO PUSH2 0x930 JUMPI PUSH2 0x92F PUSH2 0x7BD JUMP JUMPDEST JUMPDEST PUSH0 PUSH2 0x93D DUP5 DUP3 DUP6 ADD PUSH2 0x8BA JUMP JUMPDEST SWAP2 POP POP SWAP3 SWAP2 POP POP JUMP JUMPDEST PUSH2 0x94F DUP2 PUSH2 0x77B JUMP JUMPDEST DUP2 EQ PUSH2 0x959 JUMPI PUSH0 PUSH0 REVERT JUMPDEST POP JUMP JUMPDEST PUSH0 DUP2 CALLDATALOAD SWAP1 POP PUSH2 0x96A DUP2 PUSH2 0x946 JUMP JUMPDEST SWAP3 SWAP2 POP POP JUMP JUMPDEST PUSH0 PUSH1 0x20 DUP3 DUP5 SUB SLT ISZERO PUSH2 0x985 JUMPI PUSH2 0x984 PUSH2 0x7BD JUMP JUMPDEST JUMPDEST PUSH0 PUSH2 0x992 DUP5 DUP3 DUP6 ADD PUSH2 0x95C JUMP JUMPDEST SWAP2 POP POP SWAP3 SWAP2 POP POP JUMP JUMPDEST PUSH0 PUSH0 REVERT JUMPDEST PUSH0 PUSH0 REVERT JUMPDEST PUSH0 PUSH8 0xFFFFFFFFFFFFFFFF DUP3 GT ISZERO PUSH2 0x9BD JUMPI PUSH2 0x9BC PUSH2 0x7D9 JUMP JUMPDEST JUMPDEST PUSH2 0x9C6 DUP3 PUSH2 0x7C9 JUMP JUMPDEST SWAP1 POP PUSH1 0x20 DUP2 ADD SWAP1 POP SWAP2 SWAP1 POP JUMP JUMPDEST DUP3 DUP2 DUP4 CALLDATACOPY PUSH0 DUP4 DUP4 ADD MSTORE POP POP POP JUMP JUMPDEST PUSH0 PUSH2 0x9F3 PUSH2 0x9EE DUP5 PUSH2 0x9A3 JUMP JUMPDEST PUSH2 0x837 JUMP JUMPDEST SWAP1 POP DUP3 DUP2 MSTORE PUSH1 0x20 DUP2 ADD DUP5 DUP5 DUP5 ADD GT ISZERO PUSH2 0xA0F JUMPI PUSH2 0xA0E PUSH2 0x99F JUMP JUMPDEST JUMPDEST PUSH2 0xA1A DUP5 DUP3 DUP6 PUSH2 0x9D3 JUMP JUMPDEST POP SWAP4 SWAP3 POP POP POP JUMP JUMPDEST PUSH0 DUP3 PUSH1 0x1F DUP4 ADD SLT PUSH2 0xA36 JUMPI PUSH2 0xA35 PUSH2 0x99B JUMP JUMPDEST JUMPDEST DUP2 CALLDATALOAD PUSH2 0xA46 DUP5 DUP3 PUSH1 0x20 DUP7 ADD PUSH2 0x9E1 JUMP JUMPDEST SWAP2 POP POP SWAP3 SWAP2 POP POP JUMP JUMPDEST PUSH0 PUSH1 0x20 DUP3 DUP5 SUB SLT ISZERO PUSH2 0xA64 JUMPI PUSH2 0xA63 PUSH2 0x7BD JUMP JUMPDEST JUMPDEST PUSH0 DUP3 ADD CALLDATALOAD PUSH8 0xFFFFFFFFFFFFFFFF DUP2 GT ISZERO PUSH2 0xA81 JUMPI PUSH2 0xA80 PUSH2 0x7C1 JUMP JUMPDEST JUMPDEST PUSH2 0xA8D DUP5 DUP3 DUP6 ADD PUSH2 0xA22 JUMP JUMPDEST SWAP2 POP POP SWAP3 SWAP2 POP POP JUMP JUMPDEST PUSH0 DUP3 DUP3 MSTORE PUSH1 0x20 DUP3 ADD SWAP1 POP SWAP3 SWAP2 POP POP JUMP JUMPDEST PUSH32 0x436F6D70757465722073617973206E6F2E000000000000000000000000000000 PUSH0 DUP3 ADD MSTORE POP JUMP JUMPDEST PUSH0 PUSH2 0xADA PUSH1 0x11 DUP4 PUSH2 0xA96 JUMP JUMPDEST SWAP2 POP PUSH2 0xAE5 DUP3 PUSH2 0xAA6 JUMP JUMPDEST PUSH1 0x20 DUP3 ADD SWAP1 POP SWAP2 SWAP1 POP JUMP JUMPDEST PUSH0 PUSH1 0x20 DUP3 ADD SWAP1 POP DUP2 DUP2 SUB PUSH0 DUP4 ADD MSTORE PUSH2 0xB07 DUP2 PUSH2 0xACE JUMP JUMPDEST SWAP1 POP SWAP2 SWAP1 POP JUMP JUMPDEST PUSH0 DUP2 PUSH1 0x60 SHL SWAP1 POP SWAP2 SWAP1 POP JUMP JUMPDEST PUSH0 PUSH2 0xB24 DUP3 PUSH2 0xB0E JUMP JUMPDEST SWAP1 POP SWAP2 SWAP1 POP JUMP JUMPDEST PUSH0 PUSH2 0xB35 DUP3 PUSH2 0xB1A JUMP JUMPDEST SWAP1 POP SWAP2 SWAP1 POP JUMP JUMPDEST PUSH2 0xB4D PUSH2 0xB48 DUP3 PUSH2 0x77B JUMP JUMPDEST PUSH2 0xB2B JUMP JUMPDEST DUP3 MSTORE POP POP JUMP JUMPDEST PUSH0 PUSH2 0xB5E DUP3 DUP5 PUSH2 0xB3C JUMP JUMPDEST PUSH1 0x14 DUP3 ADD SWAP2 POP DUP2 SWAP1 POP SWAP3 SWAP2 POP POP JUMP JUMPDEST PUSH32 0x4E487B7100000000000000000000000000000000000000000000000000000000 PUSH0 MSTORE PUSH1 0x21 PUSH1 0x4 MSTORE PUSH1 0x24 PUSH0 REVERT JUMPDEST PUSH0 DUP2 SWAP1 POP SWAP2 SWAP1 POP JUMP JUMPDEST PUSH2 0xBAC DUP2 PUSH2 0xB9A JUMP JUMPDEST DUP3 MSTORE POP POP JUMP JUMPDEST PUSH0 PUSH1 0x20 DUP3 ADD SWAP1 POP PUSH2 0xBC5 PUSH0 DUP4 ADD DUP5 PUSH2 0xBA3 JUMP JUMPDEST SWAP3 SWAP2 POP POP JUMP JUMPDEST PUSH2 0xBD4 DUP2 PUSH2 0x851 JUMP JUMPDEST DUP3 MSTORE POP POP JUMP JUMPDEST PUSH0 PUSH1 0x20 DUP3 ADD SWAP1 POP PUSH2 0xBED PUSH0 DUP4 ADD DUP5 PUSH2 0xBCB JUMP JUMPDEST SWAP3 SWAP2 POP POP JUMP JUMPDEST PUSH2 0xBFC DUP2 PUSH2 0x884 JUMP JUMPDEST DUP3 MSTORE POP POP JUMP JUMPDEST PUSH0 PUSH1 0x80 DUP3 ADD SWAP1 POP PUSH2 0xC15 PUSH0 DUP4 ADD DUP8 PUSH2 0xBCB JUMP JUMPDEST PUSH2 0xC22 PUSH1 0x20 DUP4 ADD DUP7 PUSH2 0xBF3 JUMP JUMPDEST PUSH2 0xC2F PUSH1 0x40 DUP4 ADD DUP6 PUSH2 0xBCB JUMP JUMPDEST PUSH2 0xC3C PUSH1 0x60 DUP4 ADD DUP5 PUSH2 0xBCB JUMP JUMPDEST SWAP6 SWAP5 POP POP POP POP POP JUMP INVALID LOG2 PUSH5 0x6970667358 0x22 SLT KECCAK256 PUSH15 0xD0CEB1B26C2F04F8334E5954F912DA CHAINID 0xF6 CALLDATACOPY 0xB1 BLOBBASEFEE ADDMOD 0xDB DUP13 AND 0xED 0xB1 DUP2 0xF KECCAK256 PUSH6 0xCE64736F6C63 NUMBER STOP ADDMOD SHR STOP CALLER "
		},
		"gasEstimates": {
			"creation": {
				"codeDepositCost": "639000",
				"executionCost": "infinite",
				"totalCost": "infinite"
			},
			"external": {
				"owner()": "2514",
				"renounceOwnership()": "infinite",
				"saveSignature((bytes32,bytes32,uint8))": "infinite",
				"transferOwnership(address)": "infinite",
				"validateAccess(bytes)": "infinite"
			},
			"internal": {
				"verifyAddressSigner(bytes memory)": "infinite"
			}
		},
		"methodIdentifiers": {
			"owner()": "8da5cb5b",
			"renounceOwnership()": "715018a6",
			"saveSignature((bytes32,bytes32,uint8))": "a16747a4",
			"transferOwnership(address)": "f2fde38b",
			"validateAccess(bytes)": "f804e080"
		}
	},
	"abi": [
		{
			"inputs": [
				{
					"internalType": "address",
					"name": "_signerAddress",
					"type": "address"
				}
			],
			"stateMutability": "nonpayable",
			"type": "constructor"
		},
		{
			"inputs": [],
			"name": "ECDSAInvalidSignature",
			"type": "error"
		},
		{
			"inputs": [
				{
					"internalType": "uint256",
					"name": "length",
					"type": "uint256"
				}
			],
			"name": "ECDSAInvalidSignatureLength",
			"type": "error"
		},
		{
			"inputs": [
				{
					"internalType": "bytes32",
					"name": "s",
					"type": "bytes32"
				}
			],
			"name": "ECDSAInvalidSignatureS",
			"type": "error"
		},
		{
			"inputs": [
				{
					"internalType": "address",
					"name": "owner",
					"type": "address"
				}
			],
			"name": "OwnableInvalidOwner",
			"type": "error"
		},
		{
			"inputs": [
				{
					"internalType": "address",
					"name": "account",
					"type": "address"
				}
			],
			"name": "OwnableUnauthorizedAccount",
			"type": "error"
		},
		{
			"anonymous": false,
			"inputs": [
				{
					"indexed": true,
					"internalType": "address",
					"name": "previousOwner",
					"type": "address"
				},
				{
					"indexed": true,
					"internalType": "address",
					"name": "newOwner",
					"type": "address"
				}
			],
			"name": "OwnershipTransferred",
			"type": "event"
		},
		{
			"inputs": [],
			"name": "owner",
			"outputs": [
				{
					"internalType": "address",
					"name": "",
					"type": "address"
				}
			],
			"stateMutability": "view",
			"type": "function"
		},
		{
			"inputs": [],
			"name": "renounceOwnership",
			"outputs": [],
			"stateMutability": "nonpayable",
			"type": "function"
		},
		{
			"inputs": [
				{
					"components": [
						{
							"internalType": "bytes32",
							"name": "r",
							"type": "bytes32"
						},
						{
							"internalType": "bytes32",
							"name": "s",
							"type": "bytes32"
						},
						{
							"internalType": "uint8",
							"name": "v",
							"type": "uint8"
						}
					],
					"internalType": "struct SignatureStore.Signature",
					"name": "signature",
					"type": "tuple"
				}
			],
			"name": "saveSignature",
			"outputs": [],
			"stateMutability": "nonpayable",
			"type": "function"
		},
		{
			"inputs": [
				{
					"internalType": "address",
					"name": "newOwner",
					"type": "address"
				}
			],
			"name": "transferOwnership",
			"outputs": [],
			"stateMutability": "nonpayable",
			"type": "function"
		},
		{
			"inputs": [
				{
					"internalType": "bytes",
					"name": "signature",
					"type": "bytes"
				}
			],
			"name": "validateAccess",
			"outputs": [],
			"stateMutability": "view",
			"type": "function"
		}
	]
}